:10800000B240805A5C013140FE2B3F4004000F9388
:1080100005242F839F4FE493001CFB233F402E0138
:108020000F9304241F83CF43041CFC233B405A843A
:108030003A405C84BB120B9AFD2331506EFF3F40E7
:108040000600B0127292814F8E00F2D080FF24029F
:10805000F2F07F002202F2F07F0005027B40050073
:10806000F2D080FF22023E4088130F43B0121E8ED2
:10807000F2F07F0022023E4088130F43B0121E8EA2
:108080007B53EE2332C203433E40811A3F40060039
:10809000093C3E533F630E9305200F930320B0121B
:1080A0004A8E043C5D4201024D93F337B012C08EFC
:1080B0003E403F0D1E83FE2303435E42FF2BB293DF
:1080C000BCFF04244E930224B012448FD1420D1AF7
:1080D0000000D1420C1A0100D1420B1A0200D14219
:1080E0000A1A0300D1420F1A0600D1420E1A0700E5
:1080F000D142111A0400D142101A05000D413D5021
:1081000007003E40181D0C413C53EE4D00003D530E
:108110001E530D9CFA23C243201DC243211DC2439E
:10812000221DF2400500231DD242181D161DF240EB
:108130006A00141DF2401C00151DC243121DC243EB
:10814000101D7F403000B012CA897F403D00B01240
:10815000CA893F40101DB0126C85B2F0FFFD360F8A
:108160005F42111DB012EE8AB2F0FFFD320F7F4068
:108170003400B012CA89B2D00002360FB140FEFFFF
:108180008C00074305435443B1438A0049434843A5
:10819000D143880030407483B012688F0A4F4493F3
:1081A0001524F2D080FF2202B012748E0C4F0D4ABB
:1081B0001E418A001F418E00B012F28D1F418E00B9
:1081C000B0121490F2F07F0022021553B240FF3F2C
:1081D0009203B24014018003883C7F403800B01203
:1081E0008A894B4F7F403B00B0128A891BB37D24A4
:1081F0004F937B247F403800B0128A891FF3FA2303
:108200001A918C001E28B012B084C1434400F14082
:1082100094FF4500C1438600F14080FF87004B4337
:108220004F4B5F0E7D4010003E420E510E5F3F509F
:1082300080FFB01260845B537B9080FFF123B0120B
:10824000448FB012C08F4F9350245E42CE1C3F40EB
:10825000CF1CB012C88D4F934F243F40CF1CB0129B
:10826000788E0B4F5842CE1C7850EEFF3F40E01CFA
:10827000B012868E074FC193880021240F931124DA
:108280003C4064000D430E430F43B012908F0F9398
:1082900035203E904200322C054354433640E01CCA
:1082A000483C4D433E40CE1C3F40101DB012D4848C
:1082B0004F932920054354433640E01C3A3C1B9120
:1082C0008A002920B0129E8E4F932A205D433E40A3
:1082D000CE1C3F40101DB012D4844F93252405437B
:1082E000544359433640E01C243C1E4290031F4235
:1082F00092030E9F72231D3C54431B3C0543444391
:108300003640E01C163C814B8A00054344435943E8
:108310003640E01C0E3C054354433640E01C093C0B
:1083200005433640E01C053C254244435943364052
:10833000E01C0A93112449930F203C4064000D4334
:108340000E430F43B012908F0F9305203E902100F3
:10835000022C5443013C4443359003000B283C401D
:10836000204E0D433E4010270F43B012908FB012A5
:108370001E8E05434993022030409881265368831E
:108380005D43814590004A485A3C79467A534543BB
:10839000033C1753494A55435E4602004E93422020
:1083A0000F46B012928E0B4FC19388000B243F9062
:1083B00000940324B012448F053CB012248EC143B4
:1083C0008800213C3B9080FF1E287B5080FF0C439F
:1083D00048493850FDFF3BF0F0003F420F510B5F22
:1083E0000C9808340E4B0E5C0F460F5CDE4F0300FA
:1083F0000000043C0F4B0F5CFF4300001C533C90FB
:108400001000EE23133CF2D080FF22024D496D8212
:108410000E463E5003000F4BB0126084F2F07F0016
:108420002202043C5E93022081478C004E49065E86
:108430004A890F47B0124A8F459306204D434A930D
:1084400003244D93A223A53F15419000484A494378
:108450003040988132D0F000FD3F2A903040DE93CA
:108460003B151C4244011CF3FC23B24000A544010F
:10847000B24040A54001494D0D3C0A4E0A5C684A95
:10848000CF4800001B4244011BF3FC23689A0220E2
:108490001F531C530C99F12B92B34401FD23B2409E
:1084A00000A54001B24010A544014F4D381730419E
:1084B00092B34401FD23B24000A54401B24002A59D
:1084C0004001C24300FE92B34401FD23B24010A517
:1084D000440130413B153150E8FF0B4F084E494DE8
:1084E0003D400C000E4F3E520F41B01232910C43F2
:1084F0003F400C000F510F5C0A480A5CDF4A010044
:1085000000001C533C900C00F3233D400C000E4B2C
:108510003E520F413F500C00B01212910B4F499345
:108520000224C14300003D400C000E410F413F506A
:108530000C00B01212910E4F5F430B9303240E9365
:1085400001244F433150180038173041CF43020007
:10855000CF430300FF406A000400FF401C000500F9
:10856000FF430600FF40C0FF010030412B150B4FB9
:108570007E4029004F43B012A0897E4006006F4321
:10858000B012A0897E4007007F400300B012A0898E
:108590007E403D007F400600B012A0897E4006006C
:1085A0007F400700B012A0897E4005007F42B012D4
:1085B000A0895A4B0500594B04004E496F42B01236
:1085C000A0894E4A7F400500B012A089CB49040023
:1085D000CB4A05005A4B06004E4A7F400900B012B4
:1085E000A089CB4A06005A4B03004E4A7F400A003E
:1085F000B012A089CB4A03007E427F400B00B0122C
:10860000A0894E437F400C00B012A0895A4B020053
:108610005A9303246A931F200F3C7E4022007F4020
:108620000D00B012A0897E40B1FF7F400E00B01255
:10863000A0897E403B001D3C7E4010007F400D0025
:10864000B012A0897E40A7FF7F400E00B012A08923
:108650007E4062000E3C7E4021007F400D00B01243
:10866000A0897E4062007F400E00B012A0897E404B
:1086700076007F400F00B012A089CB4A0200DB9346
:10868000000003207E40C7FF023C7E40CAFF7F40BF
:108690001000B012A0897E4083FF7F401100B0120D
:1086A000A0897E4092FF7F401200B012A0897E40D8
:1086B00022007F401300B012A0897E40F8FF7F4067
:1086C0001400B012A0897E4035007F401500B01222
:1086D000A0897E4018007F401800B012A0897E401B
:1086E00016007F401900B012A0897E406C007F40C8
:1086F0001A00B012A0897E4043007F401B00B012D8
:10870000A0897E4043007F401C00B012A0897E40BB
:1087100043007F401D00B012A0897E4056007F407C
:108720002100B012A0897E4010007F402200B012CC
:10873000A0897E40E9FF7F402300B012A0897E40DF
:108740002A007F402400B012A0894E437F402500BC
:10875000B012A0897E401F007F402600B012A08981
:108760007E4059007F402900B012A0897E4035002C
:108770007F402D00B012A0897E4009007F402E006E
:10878000B012A0897E4020007F401700B012A0895F
:10879000291730410B12B2F0FFFD320FB2F0FEFF8D
:1087A000320FB2F0FFFD360F7F403600B012CA899B
:1087B0007F403D00B012CA893FB0F000F9237F40EE
:1087C0003A00B012CA89B2F0FFFD320FB2F0FFFDDD
:1087D000320F7F403400B012CA89B2D00002360F87
:1087E000073C7F90110004207F403A00B012CA89F4
:1087F0007F403500B0128A890E4F3EF01F003E9038
:108800000D00EF233F40CF071F83FE2303430B419F
:108810002B527E4B7F407F00B012A0895D41040047
:108820000E4B7F407F00B012AA8AB2F0FEFF320FDB
:108830007F403500B012CA897F403500B0128A8966
:108840007FF01F007F50EDFF7F90030014287F40D2
:108850003600B012CA897F403B00B012CA89B2F01C
:10886000FFFD320F7F403400B012CA89B2D000023F
:10887000360F4B43353C3F40E7031F83FE23034342
:108880003F43013C0F4E1E42320F5EF32C200E4F31
:108890003E530F93F7230F4E263C7F403600B01215
:1088A000CA897F403B00B012CA89073C7F403A002A
:1088B000B0128A893FF07F0002244B43013C5B43A6
:1088C000B2F0FFFD320FB2F0FEFF320FB2F0FFFD4B
:1088D000320F7F403400B012CA89B2D00002360F86
:1088E0004F4B3B4130410F93D827E03F0B123150A3
:1088F000C0FF0B4E7F403B00B0128A893FB07F0023
:108900002B244F9329387F904100262C4D4F0E4148
:108910007F43B0125E8A0F417D4FCB4D00000E4B5E
:10892000033CFE4F01001E534C4E4C8B4C9DF92BCB
:108930004F4D5F534F4F0F51EB4F3F006D534D4D18
:108940000D516F4D4E4F7EF07F00CB4E40005F0DBE
:108950005F09CB4F3E00023CCB4300007F40360016
:10896000B012CA897F403A00B012CA89B2F0FFFD46
:10897000320F7F403400B012CA89B2D00002360FE5
:108980006F4B315040003B4130410E4232C20343F5
:108990007FD0C0FFC24F130F5F42220F024E304103
:1089A0000C4232C20343B2B01000020FFC277FD04A
:1089B00040004F4F8F104E4E0F5E824F100FB2B0DF
:1089C0002000020FFC27024C30412B154B4F7F90AB
:1089D000BDFF05247F50CFFF7F900C003D2C0A4245
:1089E00032C20343B2F0BFFF020FB2B01000020F59
:1089F000FC274F4B7F50CFFF7F900C00232C4F4321
:108A0000B0128A89494F7E4029004F43B012A08995
:108A1000C24B110FA2B2300F10247B9032000D24F4
:108A20007B9039000A247B9038000724A2B2300FD3
:108A3000FD233D40C20C1D83FE234E494F43B0121F
:108A4000A089023CC24B110F5F42210FB2B040001F
:108A5000020FFC27024A013C4F43291730412B15D6
:108A60000B4232C20343B2B01000020FFC277FD08A
:108A7000C0FFC24F130F0F434D4D0A4D3A530B3CED
:108A8000B2B08000020FFC275942220F0C4E0C5F3F
:108A9000CC4900001F530F9AF32B5F42200F0E5D4D
:108AA000CE4FFFFF024B291730410B120B4232C24F
:108AB0000343B2B01000020FFC276C4E7FD0400081
:108AC0004F4F8F100C5F824C100F5F43093CD24E0A
:108AD0000100100FB2B02000020FFC275F531E539D
:108AE0004F9DF52B5F42200F024B3B4130410B1253
:108AF0000B4232C203434C434E4F3E50007E273C54
:108B0000B2B01000020FFC27824E100FB2B010005E
:108B1000020FFC27F2403D00110FB2B01000020F0F
:108B2000FC27F240FEFF110FB2B02000020FFC271D
:108B3000C243100FB2B08000020FFC275C42200F2E
:108B4000B2B01000020FFC27F2403D00110F4C9F05
:108B5000D723024B3B413041F240A5FF21014D4F4D
:108B60000E4D3E5044004E4E8E100E5D824E24013E
:108B70003D500044824D260192B32C01FD27C24F87
:108B80002001B2F0F9FF2C01A2B32C010324A2B200
:108B90002C01FD27824E2601C24321013041F240C3
:108BA000A5FF21014D4F0E4D3E5044004E4E8E10FC
:108BB0000E5D824E260192B32C01FD27C24F20018B
:108BC000C243210130411B154A4F5B4220017BF01B
:108BD00003004B9A042C5B534F4BB012588B4A9BAB
:108BE000042C7B534F4BB0129E8B4B9AEE231A17DB
:108BF00030414B153150BEFF0A4F59414E004F498D
:108C00007F5010000B430741075B084A085BD748B9
:108C1000080001001B533B900C00F5235B42041C31
:108C2000C14B0D005B53C24B041CC14E0E00C14D25
:108C30000F000D413D5010000E4C033CFD4E000056
:108C40001D534B4E4B8C4B99F92B4D434C434E4F80
:108C50003E53043C0B515D5B01005C534B4C0B9E3F
:108C6000F93B4E490E51CE4D1000C14F000031501E
:108C7000BEFF3D4042000E413E5042000F41B01247
:108C800032910F4AB0129487315084004717304117
:108C900092B34401FD23B24000A54401B24002A5B5
:108CA0004001CF43000092B34401FD23B24010A520
:108CB000440130411B151E4244011EF3FC23B24007
:108CC00000A54401B24040A540013D40FEFF0B4FCE
:108CD0000B5E6A4BCD4A000092B34401FD236A9BB0
:108CE00002201D531E532E93F22B92B34401FD23F9
:108CF000B24000A54001B24010A544016F431A17CD
:108D00003041315096FFF140ABFF0500F140CDFFFF
:108D1000060063120C433D4000180E413E50070010
:108D20000F413F500A00B0123490C1430200D143BA
:108D300000002C433D4000180E412E530F413F5080
:108D40000A00B0123490F1401C000500F1406A00A6
:108D50000600E14300003C4003003D4000180E4186
:108D60003E5005000F413F500A00B0123490F143CD
:108D70000300C1430400E14300003C4005003D40C6
:108D800000180E413E5003000F413F500A00B01240
:108D9000349021533D4060003E40FF000F413F5062
:108DA0000A00B0121692701260003C4020003D4054
:108DB00000180E413E500C000F413F500A00B01207
:108DC000349031506C0030411B154C434D434E4E96
:108DD0000A4E3A53033C0B5F6D5B5C534B4C0B9A52
:108DE000FA3B0E5F5F435D9EFFFF01244F431A175E
:108DF00030411B150B4F0A4E8A10CF4A0000CF4E50
:108E000001000E4D8E10CF4E0200CF4D03000E4CD0
:108E10008E10CF4E0400CF4C05001A1730411E8330
:108E2000FE2330410B12F2D080FF22023B4000941F
:108E30000F4BB012908C3B5000023B9000FEF82389
:108E4000F2F07F0022023B41304121833F40101D60
:108E5000B012028DB012248E3F4000FEB012908CF2
:108E6000C1430000F14080FF01000F41B012B48CFB
:108E7000215330411F4330415E4F0F008E105F4F32
:108E800010000FDE30416E4F8E105F4F01000FDE7D
:108E900030416E4F8E105F4F01000FDE30411E4398
:108EA0004D4F7DF007004D9303240E5E7D53FB3F35
:108EB0000D4F5D0B5F43CDBE051C01204F4330417C
:108EC0006F43B012C68BF240A5FF2101F2D080FFA4
:108ED0002001C2432101F2D003004A02B2F0FEFF9A
:108EE0006C01B2D00C006C0182436601B2404400B8
:108EF000680132D0400082436001B24050006201FC
:108F0000B2406E11640132C040003E4090D03F40FC
:108F10000300B0121E8EB2F0F0FF6E01B2F0FDFF42
:108F20000201A2B30201F723B2F03FFF6C01B2408D
:108F30000102340FF2430402F2432402B240FF0064
:108F400024033041B012009430410D4F5F0B3F506D
:108F5000051C1E437DF007004D9303240E5E7D53D8
:108F6000FB3FCFDE000030410F431E434D4F7DF0ED
:108F700007004D9303240E5E7D53FB3F0D4F5D0BA9
:108F8000CDBE051C04241F533F904006EE23304104
:108F90003B150A4E0B4F084C094DB01284930E4FEF
:108FA0008F108F118F108F110C480D490C8A0D7B7B
:108FB0001C530D63B01208910E5A0F6B38173041D5
:108FC00021823E40CE1C3F40101DB012EC884F93D2
:108FD0001E24C2930C1D1B24C293DC1C1820D142FA
:108FE000D71C0000D142D81C0100D142D91C02007C
:108FF000D142DA1C03002D423E40E0930F41B012F3
:1090000012910F9304205F43E293DD1C01244F4330
:1090100021523041701206000C4F6D435E433F40B9
:10902000101DB012F28B215330413F40101DB01281
:109030004C8530415B15315080FF5F418E004A4FB7
:10904000084A085C38908100432C0B4D09430641C7
:1090500006590749075DE64700001953399080001B
:10906000F6231942440139F040000424B24040A5DF
:109070004401033CB24000A54401B24002A54001B6
:10908000CD430000B24040A540010D4338530D9C34
:109090000F20083C094B095D074E075DE9470000BA
:1090A0001D53013C0D430D9AF52B0B5A0D48053C01
:1090B0000941095DEB4900001B531D533D908000A1
:1090C000E62BB24000A54001B24010A54401013C8E
:1090D0004F4331508000561730412B157940200006
:1090E0000A4C0B4D0C430D430E5E0F6F0C6C0D6D57
:1090F0000D9B062802200C9A03280C8A0D7B1ED398
:109100001983F22329173041B012DA900E4C0F4D1B
:1091100030410B120D930A247B4F7C4E4B9C042450
:109120004F4B4E4C0F8E033C3D53F43F0F433B419E
:1091300030414B150D936D240F9E6B24332C0C4E38
:109140000CDF1CF31B240C4E0CEF1CF307202D939B
:1091500007280B4E1BF32C430C8B033C0C4D013C9E
:109160001C430D8C0A4C094E0B4FFB4900001B534E
:109170003A53FB230B4F0B5C0E5C013C0B4F0C4D29
:109180005C030B24094C084E0A4BBA4800002A53D2
:109190003953FB235C020E5C0B5C1DF33A24EB4E4F
:1091A0000000373C0E5D0C4F0C5D0B4C0BDE1BF3CF
:1091B0001B240B4C0BEE1BF306203D9003000328F1
:1091C0000B4E1BF3013C0B4D0D8B094E0A4C084B0B
:1091D000088C3A533953EA490000074A0758F923E3
:1091E0003BE31B530C5B0E5B0A4D5A030D240B4AE9
:1091F000084E094C28832983A94800003B53FA23D1
:109200000B8A5B020E5B0C5B1DF30324DC4EFFFF3D
:10921000FFFF471730413B153D900600092C0C4FCE
:10922000043CCC4E00001C533D530D93FA231F3CCD
:109230004E4E4B4E0B9303240C4B8C100BDC1FB388
:1092400006243D53CF4E0000094F1953013C094FEE
:109250000C4D5C030A49084C8A4B00002A533853D2
:10926000FB235C020C591DF30224CC4E000038177E
:1092700030417B153D40331D3DF0FEFFC293301D54
:109280000520D243301DBD40FEFF0000074137508E
:10929000D8FF0C4F1C535C03033C1E535E020D5E53
:1092A0002F4D0E4F5E0356433E90FF7F01244643F1
:1092B0001FF34D20469316240A470E478E108E1139
:1092C0008E108E110B4E084D0E4D8E108E118E107D
:1092D0008E11094E0E4A0F4B0E880F790F110E108A
:1092E0003E53183C054E15530F455F020F5D2F4F3F
:1092F000044F14F30F200E4F3EF0FEFF3E90FEFF92
:1093000004245F030F555F02023C3F40FEFF8D4F78
:109310000000C63F0E9C1B280F4C1F535F020F5DC1
:10932000079F172846930424BF40FEFF0000083C17
:109330000E9C06240A4C3AE30A5E5A028F4A000049
:109340005C021CD38D4C00000F4D2F53033C469301
:10935000A4270F4374173041BFF0FEFFFEFF3041DA
:109360000B120B4F3C406D4E3D40C6412E4F0F43FC
:10937000B012B4933E5039300F638B4E00000F4E45
:109380003B4130413C406D4E3D40C6411E42001CB9
:109390001F42021CB012B4933E5039300F63824E0C
:1093A000001C824F021C0F4E3041824F001C824332
:1093B000021C30410B120A120B430A43073C5D03A7
:1093C0000C1002280A5E0B6F0E5E0F6F0C93F723D2
:1093D0000D93F5230E4A0F4B3A413B4130410013A8
:0493E0000000000584
:0493E4000100000084
:10FF8000FFFFFFFFFFFFFFFFFFFFFFFFFFFFFFFF81
:10FF9000FFFFFFFFFFFFFFFFFFFFFFFFFFFFFFFF71
:10FFA000FFFFFFFFFFFFFFFFFFFFFFFFFFFFFFFF61
:10FFB000FFFFFFFFFFFFFFFFFFFFFFFFFFFFFFFF51
:10FFC0005C845C845C845C845C845C845C845C8431
:10FFD0005C845C845C845C845C845C845C845C8421
:10FFE000FFFFFFFFFFFFFFFFFFFFFFFFFFFFFFFF11
:10FFF000FFFFFFFFFFFFFFFFFFFFFFFFFFFFFFFF61
:040000030000800079
:00000001FF
